:020000040800F2
:1000000018080020C98300087D0B00087F0B00083A
:10001000830B0008870B00088B0B00080000000012
:100020000000000000000000000000008F0B00082E
:10003000910B000800000000930B0008950B0008CE
:10004000E3830008E3830008E3830008E3830008F8
:10005000E3830008E3830008E3830008E3830008E8
:10006000E3830008E3830008E3830008E3830008D8
:10007000E3830008E3830008E3830008E3830008C8
:10008000E3830008E3830008E3830008E3830008B8
:10009000E3830008E3830008E3830008E3830008A8
:1000A000E3830008E3830008E3830008E383000898
:1000B000E3830008E3830008E3830008E383000888
:1000C000E3830008E3830008E3830008E383000878
:1000D000E38300083F830008E3830008E38300080C
:1000E000E3830008E3830008E3830008E383000858
:1000F000E3830008E3830008E3830008E383000848
:10010000E3830008E3830008E3830008E383000837
:10011000E3830008E3830008E3830008E383000827
:10012000E3830008E3830008E3830008E383000817
:10013000E3830008E3830008E3830008E383000807
:10014000E3830008E3830008E3830008E3830008F7
:10015000E3830008E3830008E3830008E3830008E7
:10016000E3830008E3830008E3830008E3830008D7
:10017000E3830008E3830008E3830008E3830008C7
:10018000E3830008E383000800F002F800F055F86C
:100190000AA090E8000C82448344AAF10107DA45E2
:1001A00001D100F04AF8AFF2090EBAE80F0013F0DF
:1001B000010F18BFFB1A43F00103184740930600D4
:1001C00060930600103A24BF78C878C1FAD8520765
:1001D00024BF30C830C144BF04680C6070470000C1
:1001E0000023002400250026103A28BF78C1FBD840
:1001F000520728BF30C148BF0B60704766290CF01A
:10020000048064290AF0608075290AF05D807829ED
:100210000AF0968073290AF02E84002070471FB5DB
:100220000BF0E9FF0AF03EFC0400002000210BF077
:1002300093F9E0601FBD10B510BD0AF03BFD1146FB
:10024000FFF7EDFF00F010FC0AF059FD03B4FFF7D3
:10025000F2FF03BC08F014F81CB504464FF6FF701B
:1002600001F0AEFC4FF4EB730A221146104605F084
:10027000D3FA0A234FF49B721946184605F0CCFABC
:100280004FF4EB734FF49B7219460A2005F0C4FA41
:100290004FF4EB734FF49B720A21104605F0BCFA41
:1002A0002246FCA1FE4809F0ABFFFD4818211423AB
:1002B000C822CDE900101921702005F0BAFC4123B5
:1002C0004FF49B7219460A2005F0A6FAF5487823E8
:1002D0004FF490724FF4AF7100900C2005F0DCFCED
:1002E000F1A018211023C822CDE9001050211420BC
:1002F00005F09FFCF0A018211023C822CDE90010C2
:100300007821142005F095FCEFA018211023C822B5
:10031000CDE90010A021142005F08BFCEEA01821DF
:100320001023C822CDE900101146142005F081FCED
:10033000ECA018211023C822CDE90010F0211420D0
:1003400005F077FCEAA018211023C822CDE900109F
:100350004FF48C71142005F06CFC1CBD2DE9F04F9E
:100360002DED068B83B004460E46B0EE408AF0EECB
:10037000608A93464FF000090027002002908246D1
:1003800001900025009080469FEDDD0AB0EE409A76
:10039000A24601960AF007094FEAEA07019E09EB17
:1003A0000600401EA7EBE000C0B20290029D09E0EB
:1003B0001BF80500791BC90088400099084400908B
:1003C000681CC5B2781C8542F2DB009820FA09F857
:1003D0000121019801FA00F0401E00EA080800EE31
:1003E000108AF8EE400AB0EE680A00EE880AB0EE15
:1003F000409A19EE100A0BF08DFE41EC1A0B53ECEB
:100400001A2BC0A009F0F0FEB0EE490A03B0BDEC13
:10041000068BBDE8F08F9FEDBF0A80ED070A9FEDC8
:10042000BE0A80ED060AB0EE040A80ED080A9FEDD0
:10043000B90A80ED090A9FEDB90B80ED0A0B9FED1B
:10044000B90A80ED0D0A9FEDB80A80ED0C0AB0EEF6
:10045000040A80ED0E0A9FEDB30A80ED0F0A704783
:1004600030B52DED068B83B004460D46AF4A002112
:10047000AF4809F046FCAD48807A00287CDDAB48E7
:100480000068B0F51A7F39D1A848407CA949088096
:10049000A648807CA849088008460088A5490978B4
:1004A00040EA0120A549088008460288A4A17C48AA
:1004B00009F0A6FEA1480088B0F5FA5F14DC01201F
:1004C000A04908604FF478409F490880744818217B
:1004D0001023C822CDE90010A021E62005F0A9FBD9
:1004E00000209949088009E06D4818211023C8228E
:1004F000CDE90010A021E62005F09BFB8B480068A9
:1005000040F2692188427CD18848C07A8F490880AE
:100510008648007B8E49088009888C4A128841EA07
:1005200002200BF09AFA41EC190B9FED8A0B53EC69
:10053000102B0BF0F9FA41EC180B0BF023F887495C
:1005400008607A48407B86490880084600884FF654
:10055000FF7101EA0020824908807448807B81494C
:1005600008807F4909887F4A128841EA02000BF01F
:1005700074FA41EC190B00E01DE29FED760B53EC91
:10058000102B0BF0D1FA41EC180B0AF0FBFF764967
:100590000860724890ED000A0846D0ED000A30EE7F
:1005A000200A10EE101A08460BF0B4FD41EC190BAE
:1005B0009FED6E0B53EC102B0BF0CAF841EC180BAF
:1005C0000AF0E0FF6B490860084600680BF0A2FDE6
:1005D00041EC180B53EC182B67A1314809F010FEC1
:1005E00004EB440005EBC00090ED010A6148D0ED3A
:1005F000000AB4EEE00AF1EE10FA0FD904EB440061
:1006000000E089E105EBC00090ED000A5948D0ED0B
:10061000000AB4EEE00AF1EE10FA14DB01204949B9
:1006200008604FF47840484908801D48182110237D
:10063000C822CDE900105021E62005F0FAFA00208A
:100640004149088009E0164818211023C822CDE945
:1006500000105021E62005F0ECFA404890ED000A29
:100660004148D0ED000A30EE600A454880ED000AAE
:1006700000680BF04FFD41EC180B53EC182B3EA11A
:10068000074809F0BDFD064818211023C822CDE90E
:10069000001077E0534F435F696E666F3A2575002F
:1006A000C8000020CED9000843656C6C566F6C41C1
:1006B0006167653A0000000064656C746143656CB5
:1006C0006C566F6C3A000000424D53496E73756C66
:1006D0006174696F6E3A000043656C6C566F6C4DC7
:1006E00061783A0043656C6C566F6C4D696E3A00E8
:1006F00054656D70417665726167653A000000006F
:100700000000000044617461203A202566200D0A33
:10071000000000009A9989409A9959407B14AE478D
:10072000E17AB43F66668640CDCC4C40B4000020F0
:10073000006400402A0000202C0000201C00002043
:1007400025644B00A0824242580000201E00002079
:1007500020000020FCA9F1D24D62503F080000208B
:1007600022000020240000200C00002000000000D7
:10077000000000401000002025322E336656000095
:10078000140000207821E62005F053FAE8480068BC
:100790000BF0C0FC41EC180B04EB440005EBC0006F
:1007A00090ED041BB0EE410AF0EE610A53EC102B01
:1007B00051EC180B0BF0B6FA14D80120DD49086093
:1007C0004FF47840DC490880DC4818211023C82207
:1007D000CDE900107821E62005F02BFA0020D6495B
:1007E000088009E0D54818211023C822CDE900105F
:1007F0007821E62005F01DFAD14800680BF08AFC4C
:1008000041EC180B53EC182BAFF29401CB4809F0D4
:10081000F7FC04EB440005EBC00090ED010AC8486A
:10082000D0ED000AB4EEE00AF1EE10FA0DD904EBB7
:10083000440005EBC00090ED000AC148D0ED000A6D
:10084000B4EEE00AF1EE10FA14DB0120B9490860B9
:100850004FF47840B8490880B84818211023C822BE
:10086000CDE900101146E62005F0E3F90020B24979
:10087000088009E0B14818211023C822CDE90010F2
:100880001146E62005F0D5F9AE4800680BF042FCB1
:1008900041EC180B53EC182BAFF22411A74809F0C8
:1008A000AFFC04EB440005EBC00090ED010AA54845
:1008B000D0ED000AB4EEE00AF1EE10FA0DD904EB27
:1008C000440005EBC00090ED000A9E48D0ED000A00
:1008D000B4EEE00AF1EE10FA14DB0120954908604D
:1008E0004FF4784094490880944818211023C82276
:1008F000CDE90010F021E62005F09BF900208E499B
:10090000088009E08D4818211023C822CDE9001085
:10091000F021E62005F08DF98B48006840F2733134
:10092000884254D18848407B88490880084600881E
:100930000BF0AAF841EC1A0B9FED850B53EC102B32
:100940000BF0F2F841EC190B9FED830B53EC102BDD
:100950000BF0F6FA41EC180B0AF014FE804908601F
:10096000084600680BF0D6FB41EC180B53EC182B33
:100970007CA1724809F044FC794890ED000ADFED53
:100980007B0AB4EEE00AF1EE10FA15DB01206949AA
:1009900008604FF47840684908806848182110239F
:1009A000C822CDE900104FF48C71E62005F041F922
:1009B0000020614908800AE0604818211023C822FD
:1009C000CDE900104FF48C71E62005F032F903B048
:1009D000BDEC068B30BD6649C98A372901DA012092
:1009E00035E06349C98A732901DA02202FE06049A2
:1009F000C98AAF2901DA032029E05D49C98AEB29B8
:100A000005DA5B498989A02901DA04201FE05849E9
:100A1000C98AEB2901DA052019E05549C98AB1F5DF
:100A20008E7F01DC062012E05149C98AB1F5AC7F06
:100A300005DC4F498989A02901DA072007E04C49E4
:100A4000C98AB1F5AC7F01DC082000E000207047C6
:100A500008B548484FF4EF734FF4A072002100909E
:100A6000084605F019F908BDBEB04FF6FF7602A89A
:100A7000FFF7D1FC4FF4A06007F0C6FCA82007F0F8
:100A80007DFB4FF4E13007F008FC00F08DF901F038
:100A9000CFF837490868804705F030F90020062371
:100AA0001A460521009005F0ABF900202249088084
:100AB0003CE0FFF7CDFF2E484168002088472C48D6
:100AC00090F8200000F0800078B3294880892A49F6
:100AD0000988884229DA2648C08A274949888842F5
:100AE00023DAFFF778FF054605B91FE02846FFF730
:100AF000B3FB17E0002005F01FF90446012C0AD1D2
:100B000000200C4908604FF49B733C2242210C20CA
:100B1000009604F0EEFD042C00D104E002A9284662
:100B2000FFF79EFCE6E700BF00BF00BFC1E7000083
:100B300014000020A082424258000020C80000207B
:100B4000080000200C000020B40000202E0000202F
:100B5000000000000000E03F0000000000004440F2
:100B60001800002025332E316600000000005C4292
:100B700060000020CEE70108DC000020704700BFC5
:100B8000FEE700BFFEE700BFFEE700BFFEE77047DD
:100B900070477047704700000CB50020019000902E
:100BA0007648006840F480307449086000BF73489C
:100BB000006800F4003000900198401C01900098FB
:100BC00018B90198B0F5A04FF1D16C48006800F455
:100BD000003010B10120009001E00020009000984A
:100BE000012846D165484030006840F08050634994
:100BF000403108606248006840F440406049086045
:100C00005E48083000685D490831086008460068A1
:100C100040F4004008600846006840F4A0500860B6
:100C20005848091F0860081F006840F08070091FBD
:100C3000086000BF5148006800F000700028F9D03B
:100C400040F20570504908604C480830006820F0B8
:100C500003004A49083108600846006840F0020075
:100C6000086000BF45480830006800F00C00082804
:100C7000F8D10CBD10B54548006840F470004349F8
:100C800008603E48006840F001003C4908600020D0
:100C90003A4908310860394800683D4908403749F9
:100CA00008603C48091D0860081F006820F4802087
:100CB000091F0860002031490C310860FFF76CFF04
:100CC0004FF0006031498039086010BD70B50020D8
:100CD0000022022300240221284D08352D6805F04A
:100CE0000C0020B1042806D0082834D107E02A4D92
:100CF0002A4E356033E02A4D284E35602FE01F4DD7
:100D00002D1D2D68C5F380541C4D2D1D2D6805F03B
:100D10003F0154B1224DB5FBF1F5184E361D366832
:100D2000C6F3881605FB06F209E01B4DB5FBF1F58D
:100D3000124E361D3668C6F3881605FB06F20F4DB7
:100D40002D1D2D68C5F301456D1C6B00B2FBF3F53D
:100D5000124E356003E0104D104E356000BF00BFED
:100D6000064D08352D68C5F303150E4E705D0B4D0D
:100D70002D68C540094E356070BD00000038024046
:100D80000070004008544007003C024088ED00E03D
:100D9000FFFFF6FE103000240024F4004400002081
:100DA00000127A00480000201CB50121202008F024
:100DB000A3F94FF4C060009001208DF804000020DA
:100DC0008DF8060003208DF8050001208DF807003E
:100DD0006946044807F00EFC4FF4C061014807F073
:100DE00085FC1CBD0014024001B5BDF80000009058
:100DF000BDF80000FE49088008BD01B5BDF800003F
:100E00000090BDF80000FA49891C088008BD08B5AB
:100E1000F748801C00880090BDF8000008BDF44A27
:100E200010804FF0D842A2F88010704710B50446E9
:100E30002046FFF7D9FF052007F0BAF9FFF7E7FFD3
:100E400010BDEC480089EA4908807047E849891CD0
:100E50000880704730B5014601F01F04C1F3451307
:100E6000CA0AE50205EB43151544A8B230BD00BF20
:100E7000011EA0F10102D0B2FAD1704730B504468C
:100E80000D46DC48808849F24131884205D0D94876
:100E9000808845F21031884214D1D6494889FFF73D
:100EA000A3FF2012FFF7A9FFE0B2FFF7A6FFD14989
:100EB0008889FFF799FF2812FFF79FFFE8B2FFF735
:100EC0009CFFB1E0CB48808846F60401884205D0FB
:100ED000C848808849F2814188421DD1C54880793F
:100EE000012804D1C3480088401E001B84B2C149B8
:100EF0004889FFF779FF2012FFF77FFFE0B2FFF785
:100F00007CFFBC498889FFF76FFF2812FFF775FF48
:100F1000E8B2FFF772FF87E0B648808841F66311B8
:100F2000884247D1B3488079A8B9B2480088401EAA
:100F3000001B84B2AF494889FFF756FF0020FFF736
:100F40005CFF0020FFF759FF2012FFF756FFE0B2C9
:100F5000FFF753FF16E0A7494889FFF745FF201226
:100F6000FFF74BFFE0B2FFF748FFA2490988491E8F
:100F7000C1F30F20FFF741FF9E490978491EC8B20F
:100F8000FFF73BFF9B498889FFF72EFF2812FFF7E9
:100F900034FFE8B2FFF731FF96494988491EC1F393
:100FA0000F20FFF72AFF93498978491EC8B2FFF73F
:100FB00024FF39E08F48808845F21051884220D1C3
:100FC0008C494889FFF710FF2012FFF716FF894967
:100FD0004989491C88B2FFF707FFE0B2FFF70DFF10
:100FE00084498889FFF700FF2812FFF706FF81492F
:100FF0008989491C88B2FFF7F7FEE8B2FFF7FDFECA
:1010000012E07C488079012804D17A480088401E8B
:10101000001B84B2774948892146FFF700FF7549D4
:1010200088892946FFF7FBFE30BD2DE9F0410546D2
:101030000E4600240027A0466E480088A84203DD23
:101040006C484088B04202DC0020BDE8F0813146A7
:101050002846FFF713FF6748808849F241318842EC
:1010600017D06448808846F60401884211D0614850
:10107000808845F2103188420BD05E48808841F666
:101080006311884205D05B48808849F281418842DB
:1010900003D12E20FFF7A8FE0DE05648808845F2C8
:1010A0001051884204D14FF43850FFF79DFE02E002
:1010B0002220FFF799FE4F48808849F2203188426C
:1010C00002D10220FFF7D3FEFFF7A1FE04464948F4
:1010D000808841F66311884201D12046B5E702209D
:1010E000FFF7C5FEFFF793FE04464248808849F2A9
:1010F0004131884211D03F48808845F21031884202
:101100000BD03C48808845F21051884205D03948C0
:10111000808849F2814188420AD10220FFF7A7FE68
:10112000FFF775FE8046E7B24FF6FF7000EA07272B
:101130003048808849F22531884216D02D48808871
:1011400044F23551884210D02A488088091F8842CD
:101150000BD0284880884BF20551884205D025489D
:1011600080884CF20551884201D120466DE7214824
:10117000808849F2413188420BD01E48808845F270
:101180001031884205D01B48808845F210518842B2
:1011900007D1E012C002B91240EA411040EAE8204B
:1011A00053E72046FFF756FE4FE700B51148808809
:1011B00049F24131884217D00E48808846F6040132
:1011C000884211D00B48808845F2103188420BD0FC
:1011D0000848808841F66311884205D00548808818
:1011E00049F28141884207D12920FFF7FDFD13E034
:1011F0007E00006CDC000020FE48808845F2105123
:10120000884204D14FF42450FFF7EEFD04E040F291
:1012100073110720FFF703FE00BD00B5F548808875
:1012200049F24131884217D0F248808846F60401DD
:10123000884211D0EF48808845F2103188420BD0A7
:10124000EC48808841F66311884205D0E9488088DF
:1012500049F28141884203D12820FFF7C5FD0EE005
:10126000E448808845F21051884204D14FF4205060
:10127000FFF7BAFD03E000210720FFF7D0FD00BD16
:10128000F0B5054600240027DA488079012811D1FD
:10129000D848808846F6040188420BD0D54880881B
:1012A00041F66311884205D0D248808849F28141D5
:1012B000884208D1CF488079F0B9CE48808841F67D
:1012C0006311884218D1082D15D2DFE805F0040615
:1012D000080A0C0E101206250DE007250BE0042568
:1012E00009E0052507E0012505E0002503E00325C9
:1012F00001E0022500BF00BFBE48808849F24131AD
:1013000088421DD0BB48808846F60401884217D029
:10131000B848808845F21031884211D0B54880889D
:1013200045F2105188420BD0B248808841F66311D3
:10133000884205D0AF48808849F2814188427DD1FA
:10134000082D1CD2DFE805F00406090C0F12151851
:1013500000BF14E044F0800411E044F040040EE0CB
:1013600044F0C0040BE044F0200408E044F06004C2
:1013700005E044F0A00402E044F0E00400BF00BF38
:101380009C48808845F21051884202D14FF458574A
:1013900000E036279748808845F2103188420DD00A
:1013A0009448808845F21051884207D0914880883F
:1013B00041F66311884201D044F008048D488088CA
:1013C00046F60401884205D08A48808849F2814166
:1013D000884201D144F0020421463846FFF71FFD40
:1013E0008448808841F66311884229D004F02000A7
:1013F00068B1804800887F494988884220DA7D4862
:10140000068840887B4908800846468018E079486D
:10141000808849F28141884203D176488079012849
:101420000ED07448008873494988884208DD7148A5
:10143000068840886F490880084600E088E04680BA
:101440006C48808845F21051884252D169494889D8
:10145000FFF7CAFC0020FFF7D0FC66494989491C08
:1014600088B2FFF7C1FC0020FFF7C7FC614949893A
:10147000891C88B2FFF7B8FC5E490988491EC1F390
:101480000F20FFF7BAFC5B494989C91C88B2FFF7F6
:10149000ABFC58490978491EC8B2FFF7AEFC554964
:1014A0008889FFF7A1FC0020FFF7A7FC5149898933
:1014B000491C88B2FFF798FC0020FFF79EFC4D49BD
:1014C0008989891C88B2FFF78FFC4A494988491EDF
:1014D000C1F30F20FFF791FC46498989C91C88B2E6
:1014E000FFF782FC43498978491EC8B2FFF785FCA3
:1014F00055E040494889FFF777FC0020FFF77DFC65
:101500000020FFF77AFC3B490988491EC1F30F20F0
:10151000FFF773FC37490978491EC8B2FFF76DFC25
:1015200034498889FFF760FC0020FFF766FC002043
:10153000FFF763FC2F494988491EC1F30F20FFF7CD
:101540005CFC2C498978491EC8B2FFF756FC26E09E
:10155000082D1CD2DFE805F004070A0D0F1215183C
:1015600044F0300413E044F0100410E044F0200490
:101570000DE000BF0BE044F0380408E044F028041C
:1015800005E044F0180402E044F0080400BF00BF86
:10159000032744F4805421463846FFF740FCF0BD51
:1015A00030B504460D4629462046FFF767FCFFF795
:1015B00048FC114800881149088030BD70B50446C8
:1015C0000D4616460B48808849F24131884205D0C5
:1015D0000848808845F2103188421BD10549488966
:1015E000FFF702FC2012FFF708FCE0B2FFF705FC52
:1015F000004905E0DC000020580000208000006C5D
:101600008889FFF7F1FB2812FFF7F7FBE8B2FFF735
:10161000F4FB92E0FE48808845F21051884220D1C8
:10162000FB494889FFF7E0FB2012FFF7E6FBF8498A
:101630004989491C88B2FFF7D7FBE0B2FFF7DDFB11
:10164000F3498889FFF7D0FB2812FFF7D6FBF04952
:101650008989491C88B2FFF7C7FBE8B2FFF7CDFBC9
:101660006BE0EB48808841F66311884228D1E84856
:10167000807920B9E6480088401E001B84B2E44906
:101680004889FFF7B1FB2012FFF7B7FBE0B2FFF785
:10169000B4FB2012FFF7B1FBE0B2FFF7AEFBDC4971
:1016A0008889FFF7A1FB2812FFF7A7FBE8B2FFF735
:1016B000A4FB2812FFF7A1FBE8B2FFF79EFB3CE07A
:1016C000D348808846F60401884205D0D0488088F7
:1016D00049F2814188421DD1CD488079012804D149
:1016E000CB480088401E001B84B2C9494889FFF7D7
:1016F0007BFB2012FFF781FBE0B2FFF77EFBC449C2
:101700008889FFF771FB2812FFF777FBE8B2FFF734
:1017100074FB12E0BE488079012804D1BC480088DF
:10172000401E001B84B2BA4948892146FFF777FB67
:10173000B74988892946FFF772FBB5480089B54942
:1017400008804FF0D840A0F8806070BD70B52DEDD6
:10175000048B0446BE20FFF747FB0520FFF74DFB37
:1017600020460AF091F941EC190B9FEDAB0B53ECBD
:10177000102B0AF0D9F941EC180B0AF041F985B2A7
:101780002846FFF73AFB0120FFF737FBFF20FFF762
:1017900034FB0020FFF731FB0020FFF72EFBBDECF0
:1017A000048B70BD10B50446002C73D19849887124
:1017B000F02008804FF4A07048800846808849F2E5
:1017C0004131884211D09248808846F6040188420F
:1017D0000BD08F48808845F21031884205D08C4864
:1017E000808849F28141884220D12C208849088193
:1017F0002A2048812B2088810846808846F60401EB
:1018000088420BD08248808845F21031884205D04A
:101810007F48808849F28141884206D14FF4A07008
:101820007B4908804FF4F0704880AEE078488088AB
:1018300045F21051884210D14FF43050744908815C
:101840004FF4285048814FF42C5088814FF4F070A9
:1018500008804FF44870488097E06D48808841F6D2
:10186000631188420DD12C20694908812B204881C1
:101870002A2088814FF4F07008804FF44870488027
:1018800083E022206249088120204881212088812C
:101890007BE0FFE701205E4988714FF4A07008806B
:1018A000F02048800846808849F24131884205D0BE
:1018B0005748808845F21031884207D12C2054497E
:1018C00008812A2048812B20888145E05048808863
:1018D00046F60401884205D04D48808849F281418E
:1018E000884207D12C204A4908812B2048812A2090
:1018F000888131E04648808845F21051884210D1F5
:101900004FF43050424908814FF4285048814FF439
:101910002C5088814FF4487008804FF4F070488054
:101920001AE03B48808841F6631188420DD12C2093
:10193000374908812A2048812B2088814FF448703C
:1019400008804FF4F070488006E02220304908817A
:1019500021204881202088812D48808846F6040176
:1019600088420BD02A48808845F21031884205D041
:101970002748808849F28141884206D14FF4F070AF
:10198000234908804FF4A07048800020FFF778FCBE
:1019900010BD2DE9F04F86B004460D46904699469D
:1019A00004EB0800401E86B205EB0900401E87B21A
:1019B0001748808849F2413188421BD014488088FA
:1019C00045F21031884215D01148808846F604014E
:1019D00088420FD00E48808849F28141884209D060
:1019E0000B48807901282FD10948808841F663117E
:1019F000884229D106494889FFF7F6F92012FFF7F6
:101A0000FCF9E0B2FFF7F9F93012FFF7F6F907E059
:101A1000DC0000207E00006C666666666666044038
:101A2000F0B2FFF7EAF9FE498889FFF7DDF92812DD
:101A3000FFF7E3F9E8B2FFF7E0F93812FFF7DDF955
:101A4000F8B2FFF7DAF9B8E0F548808841F663119B
:101A5000884234D1F2480088A0EB0800001B84B211
:101A600005EB0900401E1FFA80F9ED494889FFF790
:101A7000BBF92012FFF7C1F9E0B2FFF7BEF904EBA2
:101A80000801491EC1F30F20FFF7B7F904EB080165
:101A9000491EC8B2FFF7B1F9E1498889FFF7A4F9F7
:101AA0002812FFF7AAF9E8B2FFF7A7F94FEA2920B1
:101AB000FFF7A3F909F0FF00FFF79FF97DE0D84891
:101AC000808845F21051884244D1D5494889FFF7B2
:101AD0008BF92012FFF791F9D1494989491C88B245
:101AE000FFF782F9E0B2FFF788F9CD494989891CEF
:101AF00088B2FFF779F93012FFF77FF9C8494989B1
:101B0000C91C88B2FFF770F9F0B2FFF776F9C44943
:101B10008889FFF769F92812FFF76FF9C0498989A9
:101B2000491C88B2FFF760F9E8B2FFF766F9BC49D3
:101B30008989891C88B2FFF757F93812FFF75DF9D8
:101B4000B7498989C91C88B2FFF74EF9F8B2FFF787
:101B500054F932E0B248807901280ED1AA46BB463A
:101B6000AF480088801B401E80B20190AC480088BE
:101B7000001B401E80B2009003E0A246B3460195D0
:101B8000009750200590512004905220039053203C
:101B9000029051460598FFF742F959460498FFF71D
:101BA0003EF901990398FFF73AF900990298FFF777
:101BB00036F929462046FFF761F906B0BDE8F08FF7
:101BC00070B50446002696480588408845439448E9
:101BD000808846F60401884205D09148808849F201
:101BE0008141884216D18E488079012812D1002087
:101BF0008B4988712A2048812B2088810021084642
:101C0000FFF73CF90120864988712B2048812A2062
:101C1000888103E000210846FFF730F9FFF711F94A
:101C2000002602E07F480480761CAE42FAD370BDE5
:101C300000B5A1B00020209001217A2007F05CFAC5
:101C40000121084607F090FA4FF400401E90012051
:101C50008DF87C0000208DF87E0002208DF87D003C
:101C600001208DF87F001EA96F4806F0C3FC4CF2DE
:101C700033701E9002208DF87C0000208DF87E00CD
:101C800003208DF87D0001208DF87F001EA9674894
:101C900006F0B0FC4FF680701E9002208DF87C009C
:101CA00000208DF87E0003208DF87D0001208DF846
:101CB0007F001EA95E4806F09DFC4FF480501E90E8
:101CC00002208DF87C0000208DF87E0003208DF826
:101CD0007D0001208DF87F001EA9564806F08AFC81
:101CE0004FF480501E9002208DF87C0000208DF86B
:101CF0007E0003208DF87D0001208DF87F001EA955
:101D00004D4806F077FC0C220021484806F0FDFC07
:101D10000C220121454806F0F8FC0C22042143481E
:101D200006F0F3FC0C220521404806F0EEFC0C22E4
:101D300008213E4806F0E9FC0C2209213B4806F048
:101D4000E4FC0C220A21394806F0DFFC0C220E21AB
:101D5000364806F0DAFC0C220F21344806F0D5FC98
:101D60000C220721324806F0D0FC0C220821304812
:101D700006F0CBFC0C2209212D4806F0C6FC0C22F3
:101D80000A212B4806F0C1FC0C220B21284806F042
:101D9000BCFC0C221146264806F0B7FC0C220D2193
:101DA000234806F0B2FC0C220E21214806F0ADFCBF
:101DB0000C220F211E4806F0A8FC0C2211461D48DB
:101DC00006F0A3FC0C2211461B4806F09EFC0F20D7
:101DD0000890002009903C200A9000200B900C9065
:101DE0000D900E9009200190002002900820039091
:101DF0000020049005900690079006200F90002088
:101E000010901190102012900020139015901490B3
:101E1000169017904FF480501890002019900DE004
:101E2000DC0000208000006C00040240000C024036
:101E30000010024000140240001802404FF480409D
:101E40001A9000201B9008A81C9001A81D900FA8B4
:101E500006F0AFFC0121062006F036FD322006F028
:101E6000EFF901210020FEF7DAFF322006F0E8F951
:101E70000020FEF7DBFFFE49888008468088FF28A7
:101E80000ADB084680884FF6FF71884204D0F84884
:101E90008088B0F5134F7DD1D320FEF7A5FFFEF764
:101EA000B6FFF3498880FEF7B2FFF1498880FEF75C
:101EB000AEFFEF498880084680884FF6FF7101EA3F
:101EC0000020EB498880FEF7A2FFE9498988084392
:101ED000E74988800846808849F24131884259D0D4
:101EE000BF20FEF781FFFEF792FFE1498880FEF7F1
:101EF0008EFFDF498880FEF78AFFDD498880FEF784
:101F000086FFDB498880084680884FF6FF7101EA2A
:101F10000020D7498880FEF77AFFD5498988084391
:101F2000D34988800846808846F60401884231D02B
:101F3000CF48808849F2814188427AD0D420FEF788
:101F400053FFFEF764FFCA498880FEF760FFC84967
:101F50008880FEF75CFFC6498880084680884FF677
:101F6000FF7101EA0020C2498880FEF750FFC04996
:101F700089880843BE4988800846808845F2103128
:101F8000884256D04FF45A40FEF72EFFFEF73FFF2F
:101F9000B74900E04DE088804FF45B40FEF724FF36
:101FA000FEF735FFB2498880084680884FF6FF71FA
:101FB00001EA0020AE4988804FF45C40FEF714FF30
:101FC000FEF725FFAA4989880843A9498880084661
:101FD0008088B0F5004F02D145F210508880A448A7
:101FE000808845F21051884223D0A120FEF7FCFEE4
:101FF000FEF70DFF9E498880FEF709FF9C49888007
:10200000084680884FF6FF7101EA002098498880D1
:10201000FEF7FDFE96498988084395498880084661
:10202000808845F26171884203D141F6631090497E
:1020300088808F48808849F24131884211D08C488D
:10204000808845F2103188420BD08948808845F25B
:102050001051884205D08648808841F66311884235
:102060001DD18448006820F00F004FF02041C1F8D6
:102070001C010846D0F81C0120F47060C1F81C0156
:102080000846D0F81C0140F00300C1F81C010846C6
:10209000D0F81C0140F40070C1F81C0128E074481D
:1020A000808846F60401884205D0714880884CF249
:1020B000055188421CD16F48006820F00F004FF096
:1020C0002041C1F81C010846D0F81C0120F47060C2
:1020D000C1F81C010846D0F81C0140F00A00C1F804
:1020E0001C010846D0F81C0140F44060C1F81C01F6
:1020F0005F48818860A008F077F85D48808849F2E1
:10210000413188427ED1CF20FEF76EFE0020FEF7DF
:1021100074FEC120FEF771FE3020FEF76EFEED204A
:10212000FEF762FE6420FEF768FE0320FEF765FE00
:102130001220FEF762FE8120FEF75FFEE820FEF728
:1021400053FE8520FEF759FE1020FEF756FE7A203A
:10215000FEF753FECB20FEF747FE3920FEF74DFE7B
:102160002C20FEF74AFE0020FEF747FE3420FEF743
:1021700044FE0220FEF741FEF720FEF735FE202048
:10218000FEF73BFEEA20FEF72FFE0020FEF735FEAD
:102190000020FEF732FEC020FEF726FE1B20FEF7D1
:1021A0002CFEC120FEF720FE0120FEF726FEC520F2
:1021B000FEF71AFE3020FEF720FE3020FEF71DFE4F
:1021C000C720FEF711FEB720FEF717FE3620FEF7F8
:1021D0000BFE4820FEF711FE3A20FEF705FE5520C3
:1021E000FEF70BFEB120FEF7FFFD0020FEF705FE17
:1021F0001A20FEF702FEB620FEF7F6FD0A20FEF7D3
:10220000FCFD00E0A4E0A220FEF7F7FDF220FEF7BF
:10221000EBFD0020FEF7F1FD2620FEF7E5FD012095
:10222000FEF7EBFDE020FEF7DFFD0F20FEF7E5FDFA
:102230002A20FEF7E2FD2820FEF7DFFD0820FEF74A
:10224000DCFD0E20FEF7D9FD0820FEF7D6FD542058
:10225000FEF7D3FDA920FEF7D0FD4320FEF7CDFD0C
:102260000A20FEF7CAFD0F20FEF7C7FD00200BE095
:10227000DC0000201C0100A0204C43442049443ACB
:1022800025780D0A00000000FEF7B7FD0020FEF7DC
:10229000B4FD0020FEF7B1FD0020FEF7AEFDE12009
:1022A000FEF7A2FD0020FEF7A8FD1520FEF7A5FD14
:1022B0001720FEF7A2FD0720FEF79FFD1120FEF775
:1022C0009CFD0620FEF799FD2B20FEF796FD56207B
:1022D000FEF793FD3C20FEF790FD0520FEF78DFDF7
:1022E0001020FEF78AFD0F20FEF787FD3F20FEF746
:1022F00084FD3F20FEF781FD0F20FEF77EFD2B20A1
:10230000FEF772FD0020FEF778FD0020FEF775FD58
:102310000120FEF772FD3F20FEF76FFD2A20FEF739
:1023200063FD0020FEF769FD0020FEF766FD00203A
:10233000FEF763FDEF20FEF760FD1120FEF754FD70
:10234000782005F07DFF2920FEF74EFD03F0C5B98A
:10235000FE48808846F6040188427CD11120FEF7B1
:1023600043FD142005F06CFFD020FEF73DFD072053
:10237000FEF743FD4220FEF740FD1D20FEF73DFD28
:10238000D120FEF731FD0020FEF737FD1A20FEF7C1
:1023900034FD0920FEF731FDD220FEF725FD012096
:1023A000FEF72BFD2220FEF728FDC020FEF71CFDC6
:1023B0001020FEF722FD3B20FEF71FFD0020FEF758
:1023C0001CFD0220FEF719FD1120FEF716FDC520A9
:1023D000FEF70AFD0320FEF710FDC820FEF704FDFE
:1023E0000020FEF70AFD2520FEF707FD2120FEF75D
:1023F00004FD0520FEF701FD0020FEF7FEFC0A208B
:10240000FEF7FBFC6520FEF7F8FC2520FEF7F5FC47
:102410007720FEF7F2FC5020FEF7EFFC0F20FEF7CE
:10242000ECFC0020FEF7E9FCF820FEF7DDFC0120C3
:10243000FEF7E3FCFE20FEF7D7FC0020FEF7DDFCF4
:102440000220FEF7DAFC2020FEF7CEFC3620FEF755
:10245000CBFC082000E02CE0FEF7CFFC3A20FEF792
:10246000C3FC5520FEF7C9FC2B20FEF7BDFC002065
:10247000FEF7C3FC0020FEF7C0FC0120FEF7BDFC08
:102480003F20FEF7BAFC2A20FEF7AEFC0020FEF744
:10249000B4FC0020FEF7B1FC0120FEF7AEFCDF200B
:1024A000FEF7ABFC782005F0CBFE2920FEF79CFC64
:1024B0004CE7A648808849F2814188427ED11120AC
:1024C000FEF792FC142005F0BBFED020FEF78CFC3A
:1024D0000720FEF792FC4220FEF78FFC1B20FEF740
:1024E0008CFCD120FEF780FC0020FEF786FC1E202D
:1024F000FEF783FC1220FEF780FCD220FEF774FC6E
:102500000120FEF77AFC1120FEF777FCC020FEF7D1
:102510006BFC1020FEF771FC3B20FEF76EFC0020E8
:10252000FEF76BFC1220FEF768FC0120FEF765FC4D
:10253000C520FEF759FC0220FEF75FFCC820FEF71D
:1025400053FC0220FEF759FC4620FEF756FC1420EF
:10255000FEF753FC3120FEF750FC0A20FEF74DFC3D
:102560000420FEF74AFC3720FEF747FC2420FEF744
:1025700044FC5720FEF741FC1320FEF73EFC0620EA
:10258000FEF73BFC0C20FEF738FC2020FEF72CFC6D
:102590003620FEF729FC0A20FEF72FFC3A20FEF732
:1025A00023FC0520FEF729FC2A20FEF71DFC002055
:1025B000FEF723FC0020FEF720FC00E01BE00120DA
:1025C000FEF71BFC3F20FEF718FC2B20FEF70CFC4F
:1025D0000020FEF712FC0020FEF70FFC0120FEF7A2
:1025E0000CFCDF20FEF709FC782005F029FE2920ED
:1025F000FEF7FAFBAAE65548808845F2103188427A
:1026000040F07C87ED20FEF7EFFB0120FEF7F5FBA5
:10261000FE20FEF7F2FBEE20FEF7E6FBDE20FEF7E3
:10262000ECFB2120FEF7E9FBF120FEF7DDFB0120AA
:10263000FEF7E3FBDF20FEF7D7FB1020FEF7DDFB04
:10264000C420FEF7D1FB8F20FEF7D7FBC620FEF794
:10265000CBFB0020FEF7D1FBE220FEF7CEFBE22011
:10266000FEF7CBFBE220FEF7C8FBBF20FEF7BCFB6A
:10267000AA20FEF7C2FBB020FEF7B6FB0D20FEF746
:10268000BCFB0020FEF7B9FB0D20FEF7B6FB0020D7
:10269000FEF7B3FB1120FEF7B0FB0020FEF7ADFB09
:1026A0001920FEF7AAFB0020FEF7A7FB2120FEF76A
:1026B000A4FB0020FEF7A1FB2D20FEF79EFB0020CF
:1026C000FEF79BFB3D20FEF798FB0020FEF795FBF5
:1026D0005D20FEF792FB0020FEF78FFB5D20FEF7EA
:1026E0008CFB0020FEF789FBB120FEF77DFB8020EC
:1026F000FEF783FB0020FEF780FB8B20FEF77DFBBF
:102700000020FEF77AFB9620FEF777FB0020FEF70D
:1027100074FBB220FEF768FB0020FEF76EFB002082
:10272000FEF76BFB0220FEF768FB0020FEF765FB5F
:102730000320FEF762FB0020FEF75FFBB320FEF7ED
:1027400053FB0020FEF759FB002001E0DC000020D5
:10275000FEF753FB0020FEF750FB0020FEF74DFB79
:102760000020FEF74AFB0020FEF747FB0020FEF7A3
:1027700044FB0020FEF741FB0020FEF73EFB00205B
:10278000FEF73BFB0020FEF738FB0020FEF735FB91
:102790000020FEF732FB0020FEF72FFB0020FEF7A3
:1027A0002CFB0020FEF729FB0020FEF726FB002073
:1027B000FEF723FB0020FEF720FB0020FEF71DFBA9
:1027C0000020FEF71AFB0020FEF717FB0020FEF7A3
:1027D00014FB0020FEF711FBB420FEF705FB8B2055
:1027E000FEF70BFB0020FEF708FB9620FEF705FB2B
:1027F0000020FEF702FBA120FEF7FFFA0020FEF703
:10280000FCFAB520FEF7F0FA0220FEF7F6FA0020F7
:10281000FEF7F3FA0320FEF7F0FA0020FEF7EDFAD8
:102820000420FEF7EAFA0020FEF7E7FAB620FEF7EA
:10283000DBFA0020FEF7E1FA0020FEF7DEFAB7200F
:10284000FEF7D2FA0020FEF7D8FA0020FEF7D5FAFC
:102850003F20FEF7D2FA0020FEF7CFFA5E20FEF707
:10286000CCFA0020FEF7C9FA6420FEF7C6FA002071
:10287000FEF7C3FA8C20FEF7C0FA0020FEF7BDFA7F
:10288000AC20FEF7BAFA0020FEF7B7FADC20FEF71C
:10289000B4FA0020FEF7B1FA7020FEF7AEFA00207D
:1028A000FEF7ABFA9020FEF7A8FA0020FEF7A5FA93
:1028B000EB20FEF7A2FA0020FEF79FFADC20FEF7DD
:1028C0009CFA0020FEF799FAB820FEF78DFA002056
:1028D000FEF793FA0020FEF790FA0020FEF78DFA3B
:1028E0000020FEF78AFA0020FEF787FA0020FEF7A4
:1028F00084FA0020FEF781FA0020FEF77EFABA2063
:10290000FEF772FA2420FEF778FA0020FEF775FA37
:102910000020FEF772FA0020FEF76FFAC120FEF7E2
:1029200063FA2020FEF769FA0020FEF766FA5420C9
:10293000FEF763FA0020FEF760FAFF20FEF75DFA6B
:102940000020FEF75AFAC220FEF74EFA0A20FEF7E0
:1029500054FA0020FEF751FA0420FEF74EFA002048
:10296000FEF74BFAC320FEF73FFA3C20FEF745FA8C
:102970000020FEF742FA3A20FEF73FFA0020FEF769
:102980003CFA3920FEF739FA0020FEF736FA3720F4
:10299000FEF733FA0020FEF730FA3C20FEF72DFA5E
:1029A0000020FEF72AFA3620FEF727FA0020FEF76D
:1029B00024FA3220FEF721FA0020FEF71EFA2F201B
:1029C000FEF71BFA0020FEF718FA2C20FEF715FA86
:1029D0000020FEF712FA2920FEF70FFA0020FEF77A
:1029E0000CFA2620FEF709FA0020FEF706FA24204A
:1029F000FEF703FA0020FEF700FA2420FEF7FDF9A7
:102A00000020FEF7FAF92320FEF7F7F90020FEF781
:102A1000F4F93C20FEF7F1F90020FEF7EEF936203C
:102A2000FEF7EBF90020FEF7E8F93220FEF7E5F9B2
:102A30000020FEF7E2F92F20FEF7DFF90020FEF775
:102A4000DCF92C20FEF7D9F90020FEF7D6F9292071
:102A5000FEF7D3F90020FEF7D0F92620FEF7CDF9D6
:102A60000020FEF7CAF92420FEF7C7F90020FEF780
:102A7000C4F92420FEF7C1F90020FEF7BEF9232097
:102A8000FEF7BBF90020FEF7B8F9C420FEF7ACF959
:102A90006220FEF7B2F90020FEF7AFF90520FEF73D
:102AA000ACF90020FEF7A9F98420FEF7A6F9002072
:102AB000FEF7A3F9F020FEF7A0F90020FEF79DF93C
:102AC0001820FEF79AF90020FEF797F9A420FEF7E8
:102AD00094F90020FEF791F91820FEF78EF90020F6
:102AE000FEF78BF95020FEF788F90020FEF785F9F4
:102AF0000C20FEF782F90020FEF77FF91720FEF781
:102B00007CF90020FEF779F99520FEF776F9002090
:102B1000FEF773F9F320FEF770F90020FEF76DF968
:102B2000E620FEF76AF90020FEF767F9C520FEF7F8
:102B30005BF93220FEF761F90020FEF75EF94420D0
:102B4000FEF75BF90020FEF758F96520FEF755F90E
:102B50000020FEF752F97620FEF74FF90020FEF72D
:102B60004CF98820FEF749F90020FEF746F9C62007
:102B7000FEF73AF92020FEF740F90020FEF73DF974
:102B80001720FEF73AF90020FEF737F90120FEF78B
:102B900034F90020FEF731F9C720FEF725F90020AF
:102BA000FEF72BF90020FEF728F90020FEF725F9A3
:102BB0000020FEF722F9C820FEF716F90020FEF7E4
:102BC0001CF90020FEF719F90020FEF716F9002085
:102BD000FEF713F9C920FEF707F90020FEF70DF9FB
:102BE0000020FEF70AF90020FEF707F90020FEF7A3
:102BF00004F90020FEF701F90020FEF7FEF800209E
:102C0000FEF7FBF80020FEF7F8F80020FEF7F5F8D5
:102C10000020FEF7F2F80020FEF7EFF80020FEF7A4
:102C2000ECF80020FEF7E9F80020FEF7E6F80020B7
:102C3000FEF7E3F80020FEF7E0F8E020FEF7D4F816
:102C40001620FEF7DAF80020FEF7D7F81C20FEF772
:102C5000D4F80020FEF7D1F82120FEF7CEF80020AE
:102C6000FEF7CBF83620FEF7C8F80020FEF7C5F8CF
:102C70004620FEF7C2F80020FEF7BFF85220FEF70C
:102C8000BCF80020FEF7B9F86420FEF7B6F8002083
:102C9000FEF7B3F87A20FEF7B0F80020FEF7ADF8A3
:102CA0008B20FEF7AAF80020FEF7A7F89920FEF780
:102CB000A4F80020FEF7A1F8A820FEF79EF8002057
:102CC000FEF79BF8B920FEF798F80020FEF795F87C
:102CD000C420FEF792F80020FEF78FF8CA20FEF716
:102CE0008CF80020FEF789F8D220FEF786F8002045
:102CF000FEF783F8D920FEF780F80020FEF77DF874
:102D0000E020FEF77AF80020FEF777F8F320FEF7D0
:102D100074F80020FEF771F8E120FEF765F8162040
:102D2000FEF76BF80020FEF768F81C20FEF765F848
:102D30000020FEF762F82220FEF75FF80020FEF781
:102D40005CF83620FEF759F80020FEF756F84520CB
:102D5000FEF753F80020FEF750F85220FEF74DF82A
:102D60000020FEF74AF86420FEF747F80020FEF73F
:102D700044F87A20FEF741F80020FEF73EF88B2059
:102D8000FEF73BF80020FEF738F89920FEF735F8FB
:102D90000020FEF732F8A820FEF72FF80020FEF7FB
:102DA0002CF8B920FEF729F80020FEF726F8C420F9
:102DB000FEF723F80020FEF720F8CA20FEF71DF8E2
:102DC0000020FEF71AF8D220FEF717F80020FEF7D1
:102DD00014F8D820FEF711F80020FEF70EF8E020D6
:102DE000FEF70BF80020FEF708F8F320FEF705F8D1
:102DF0000020FEF702F8E220FDF7F6FF0520FDF7C0
:102E0000FCFF0020FDF7F9FF0B20FDF7F6FF002087
:102E1000FDF7F3FF1B20FDF7F0FF0020FDF7EDFFAE
:102E20003420FDF7EAFF0020FDF7E7FF4420FDF71F
:102E3000E4FF0020FDF7E1FF4F20FDF7DEFF00205B
:102E4000FDF7DBFF6120FDF7D8FF0020FDF7D5FF80
:102E50007920FDF7D2FF0020FDF7CFFF8820FDF796
:102E6000CCFF0020FDF7C9FF9720FDF7C6FF00202B
:102E7000FDF7C3FFA620FDF7C0FF0020FDF7BDFF53
:102E8000B720FDF7BAFF0020FDF7B7FFC220FDF71E
:102E9000B4FF0020FDF7B1FFC720FDF7AEFF002013
:102EA000FDF7ABFFD120FDF7A8FF0020FDF7A5FF40
:102EB000D620FDF7A2FF0020FDF79FFFDD20FDF7E4
:102EC0009CFF0020FDF799FFF320FDF796FF0020FF
:102ED000FDF793FFE320FDF787FF0520FDF78DFF4A
:102EE0000020FDF78AFF0A20FDF787FF0020FDF78D
:102EF00084FF1C20FDF781FF0020FDF77EFF3320BB
:102F0000FDF77BFF0020FDF778FF4420FDF775FFFC
:102F10000020FDF772FF5020FDF76FFF0020FDF746
:102F20006CFF6220FDF769FF0020FDF766FF782047
:102F3000FDF763FF0020FDF760FF8820FDF75DFFD0
:102F40000020FDF75AFF9720FDF757FF0020FDF7FF
:102F500054FFA620FDF751FF0020FDF74EFFB720DC
:102F6000FDF74BFF0020FDF748FFC220FDF745FFAE
:102F70000020FDF742FFC720FDF73FFF0020FDF7CF
:102F80003CFFD120FDF739FF0020FDF736FFD520AB
:102F9000FDF733FF0020FDF730FFDD20FDF72DFFAB
:102FA0000020FDF72AFFF320FDF727FF0020FDF7A3
:102FB00024FFE420FDF718FF0120FDF71EFF00208D
:102FC000FDF71BFF0120FDF718FF0020FDF715FF9F
:102FD0000220FDF712FF0020FDF70FFF2A20FDF76A
:102FE0000CFF0020FDF709FF3C20FDF706FF002045
:102FF000FDF703FF4B20FDF700FF0020FDF7FDFE6E
:103000005D20FDF7FAFE0020FDF7F7FE7420FDF7C6
:10301000F4FE0020FDF7F1FE8420FDF7EEFE002017
:10302000FDF7EBFE9320FDF7E8FE0020FDF7E5FE3F
:10303000A220FDF7E2FE0020FDF7DFFEB320FDF742
:10304000DCFE0020FDF7D9FEBE20FDF7D6FE0020F5
:10305000FDF7D3FEC420FDF7D0FE0020FDF7CDFE26
:10306000CD20FDF7CAFE0020FDF7C7FED320FDF7F7
:10307000C4FE0020FDF7C1FEDD20FDF7BEFE0020EE
:10308000FDF7BBFEF320FDF7B8FE0020FDF7B5FE0F
:10309000E520FDF7A9FE0020FDF7AFFE0020FDF7BB
:1030A000ACFE0020FDF7A9FE0020FDF7A6FE0220E1
:1030B000FDF7A3FE0020FDF7A0FE2920FDF79DFEF1
:1030C0000020FDF79AFE3C20FDF797FE0020FDF75B
:1030D00094FE4B20FDF791FE0020FDF78EFE5D2053
:1030E000FDF78BFE0020FDF788FE7420FDF785FEBE
:1030F0000020FDF782FE8420FDF77FFE0020FDF713
:103100007CFE9320FDF779FE0020FDF776FEA220DD
:10311000FDF773FE0020FDF770FEB320FDF76DFE96
:103120000020FDF76AFEBE20FDF767FE0020FDF7D8
:1031300064FEC420FDF761FE0020FDF75EFECD2099
:10314000FDF75BFE0020FDF758FED320FDF755FE8E
:103150000020FDF752FEDC20FDF74FFE0020FDF7BA
:103160004CFEF320FDF749FE0020FDF746FEE62069
:10317000FDF73AFE1120FDF740FE0020FDF73DFE71
:103180003420FDF73AFE0020FDF737FE5620FDF70C
:1031900034FE0020FDF731FE7620FDF72EFE0020E4
:1031A000FDF72BFE7720FDF728FE0020FDF725FE1A
:1031B0006620FDF722FE0020FDF71FFE8820FDF7A8
:1031C0001CFE0020FDF719FE9920FDF716FE0020D9
:1031D000FDF713FEBB20FDF710FE0020FDF70DFEEE
:1031E0009920FDF70AFE0020FDF707FE6620FDF797
:1031F00004FE0020FDF701FE5520FDF7FEFD002036
:10320000FDF7FBFD5520FDF7F8FD0020FDF7F5FD6E
:103210004520FDF7F2FD0020FDF7EFFD4320FDF70F
:10322000ECFD0020FDF7E9FD4420FDF7E6FD002060
:10323000FDF7E3FDE720FDF7D7FD3220FDF7DDFDCB
:103240000020FDF7DAFD5520FDF7D7FD0020FDF742
:10325000D4FD7620FDF7D1FD0020FDF7CEFD6620E0
:10326000FDF7CBFD0020FDF7C8FD6720FDF7C5FD8C
:103270000020FDF7C2FD6720FDF7BFFD0020FDF730
:10328000BCFD8720FDF7B9FD0020FDF7B6FD9920B4
:10329000FDF7B3FD0020FDF7B0FDBB20FDF7ADFD50
:1032A0000020FDF7AAFD9920FDF7A7FD0020FDF7FE
:1032B000A4FD7720FDF7A1FD0020FDF79EFD442031
:1032C000FDF79BFD0020FDF798FD5620FDF795FDCD
:1032D0000020FDF792FD2320FDF78FFD0020FDF774
:1032E0008CFD3320FDF789FD0020FDF786FD45208C
:1032F000FDF783FD0020FDF780FDE820FDF774FD5C
:103300000020FDF77AFD0020FDF777FD9920FDF7FD
:1033100074FD0020FDF771FD8720FDF76EFD002094
:10332000FDF76BFD8820FDF768FD0020FDF765FDCA
:103330007720FDF762FD0020FDF75FFD6620FDF7B9
:103340005CFD0020FDF759FD8820FDF756FD0020AB
:10335000FDF753FDAA20FDF750FD0020FDF74DFDC0
:10336000BB20FDF74AFD0020FDF747FD9920FDF742
:1033700044FD0020FDF741FD6620FDF73EFD0020E5
:10338000FDF73BFD5520FDF738FD0020FDF735FD2D
:103390005520FDF732FD0020FDF72FFD4420FDF7FD
:1033A0002CFD0020FDF729FD4420FDF726FD00201F
:1033B000FDF723FD5520FDF720FD0020FDF71DFD45
:1033C000E920FDF711FDAA20FDF717FD0020FDF70C
:1033D00014FD0020FDF711FD0020FDF70EFD00207B
:1033E000FDF702FDAA20FDF708FDCF20FDF7FCFC4C
:1033F0000020FDF702FD0020FDF7FFFC0020FDF797
:10340000FCFC0020FDF7F9FC0020FDF7F6FC002095
:10341000FDF7F3FC0020FDF7F0FC0020FDF7EDFCCC
:103420000020FDF7EAFC0020FDF7E7FC0020FDF797
:10343000E4FC0020FDF7E1FC0020FDF7DEFC0020AD
:10344000FDF7DBFC0020FDF7D8FC0020FDF7D5FCE4
:103450000020FDF7D2FCF020FDF7C6FC0020FDF7B0
:10346000CCFC5020FDF7C9FC0020FDF7C6FC002075
:10347000FDF7C3FC0020FDF7C0FCF320FDF7B4FC12
:103480000020FDF7BAFCF920FDF7AEFC0620FDF7A1
:10349000B4FC1020FDF7B1FC2920FDF7AEFC0020A4
:1034A000FDF7ABFC3A20FDF79FFC5520FDF7A5FC8E
:1034B0001120FDF799FC642004F0C2FE2920FDF7DD
:1034C00093FC3520FDF790FC0020FDF796FC512081
:1034D000FDF78AFCFF20FDF790FC5320FDF784FCEC
:1034E0002C20FDF78AFC5520FDF77EFC8220FDF79D
:1034F00084FC2C20FDF778FC02F0EFB8FE488088B1
:1035000045F2105188427DD155214FF47040FDF7AE
:1035100086FCAA214FF20100FDF781FC52214FF2F7
:103520000200FDF77CFC08214FF20300FDF777FC59
:1035300001214FF20400FDF772FC0D214FF43040E1
:10354000FDF76DFC0D214BF20100FDF768FC0D212C
:103550004BF20200FDF763FC34214FF43640FDF7D7
:103560005EFC34214BF20160FDF759FC34214BF233
:103570000260FDF754FC0D214FF43140FDF74FFC84
:103580000D214BF20110FDF74AFC0D214BF2021008
:10359000FDF745FC34214FF43740FDF740FC342162
:1035A0004BF20170FDF73BFC34214BF20270FDF74A
:1035B00036FC00214FF43240FDF731FC00214BF284
:1035C0000120FDF72CFC00214BF20220FDF727FC27
:1035D00024214FF43840FDF722FC24214BF6010052
:1035E000FDF71DFC24214BF60200FDF718FC01211C
:1035F0004FF43F40FDF713FC0F214FF43340FDF72C
:103600000EFC00E0FDE30F214BF20130FDF707FC5B
:103610000F214BF20230FDF702FC34214FF4394008
:10362000FDF7FDFB34214BF60110FDF7F8FB3421CB
:103630004BF60210FDF7F3FB08214FF43540FDF780
:10364000EEFB08214BF20150FDF7E9FB08214BF29C
:103650000250FDF7E4FB03214FF44240FDF7DFFB8E
:1036600024214FF43A40FDF7DAFB24214BF60120E8
:10367000FDF7D5FB24214BF60220FDF7D0FB0021FE
:103680004FF43C40FDF7CBFB78214BF60140FDF7B2
:10369000C6FB00214BF60240FDF7C1FB00214FF4B1
:1036A0003D40FDF7BCFB78214BF60150FDF7B7FB21
:1036B00000214BF60250FDF7B2FB00214FF43E40D3
:1036C000FDF7ADFB64214BF60160FDF7A8FB00217F
:1036D0004FF45140FDF7A3FB33214DF20110FDF7EC
:1036E0009EFB00214DF20210FDF799FB34214DF2B3
:1036F0000310FDF794FB00214DF20410FDF78FFB42
:103700003A214DF20510FDF78AFB00214DF206101B
:10371000FDF785FB4A214DF20710FDF780FB0021E4
:103720004DF20810FDF77BFB5C214DF20910FDF70F
:1037300076FB00214DF20A10FDF771FB81214DF25D
:103740000B10FDF76CFB00214DF20C10FDF767FB31
:10375000A6214DF20D10FDF762FB00214DF20E1077
:10376000FDF75DFBE5214DF20F10FDF758FB012140
:103770004DF21010FDF753FB13214DF21110FDF720
:103780004EFB01214DF21210FDF749FB54214DF281
:103790001310FDF744FB01214DF21410FDF73FFB20
:1037A00082214DF21510FDF73AFB01214DF2161062
:1037B000FDF735FBCA214DF21710FDF730FB022152
:1037C0004DF21810FDF72BFB00214DF21910FDF7FB
:1037D00026FB02214DF21A10FDF721FB01214DF2CB
:1037E0001B10FDF71CFB02214DF21C10FDF717FB0F
:1037F00034214DF21D10FDF712FB02214DF21E1077
:10380000FDF70DFB67214DF21F10FDF708FB0221AC
:103810004DF22010FDF703FB84214DF22110FDF73E
:10382000FEFA02214DF22210FDF7F9FAA4214DF221
:103830002310FDF7F4FA02214DF22410FDF7EFFA00
:10384000B7214DF22510FDF7EAFA02214DF22610BC
:10385000FDF7E5FACF214DF22710FDF7E0FA02213E
:103860004DF22810FDF7DBFADE214DF22910FDF7AD
:10387000D6FA02214DF22A10FDF7D1FAF2214DF2CB
:103880002B10FDF7CCFA02214DF22C10FDF7C7FAF0
:10389000FE214DF22D10FDF7C2FA03214DF22E103C
:1038A000FDF7BDFA10214DF22F10FDF7B8FA0321F4
:1038B0004DF23010FDF7B3FA33214DF23110FDF720
:1038C000AEFA03214DF23210FDF7A9FA6D214DF247
:1038D0003310FDF7A4FA00214FF45240FDF79FFA90
:1038E00033214DF20120FDF79AFA00214DF202201A
:1038F000FDF795FA342101E0DC0000204DF20320B1
:10390000FDF78DFA00214DF20420FDF788FA3A21E7
:103910004DF20520FDF783FA00214DF20620FDF758
:103920007EFA4A214DF20720FDF779FA00214DF287
:103930000820FDF774FA5C214DF20920FDF76FFABB
:1039400000214DF20A20FDF76AFA81214DF20B2089
:10395000FDF765FA00214DF20C20FDF760FAA62173
:103960004DF20D20FDF75BFA00214DF20E20FDF720
:1039700056FAE5214DF20F20FDF751FA01214DF2E3
:103980001020FDF74CFA13214DF21120FDF747FAF4
:1039900001214DF21220FDF742FA54214DF213207D
:1039A000FDF73DFA01214DF21420FDF738FA82218E
:1039B0004DF21520FDF733FA01214DF21620FDF7E7
:1039C0002EFACA214DF21720FDF729FA02214DF2F5
:1039D0001820FDF724FA00214DF21920FDF71FFAF7
:1039E00002214DF21A20FDF71AFA01214DF21B2097
:1039F000FDF715FA02214DF21C20FDF710FA3421D3
:103A00004DF21D20FDF70BFA02214DF21E20FDF7AD
:103A100006FA67214DF21F20FDF701FA02214DF24F
:103A20002020FDF7FCF984214DF22120FDF7F7F964
:103A300002214DF22220FDF7F2F9A4214DF22320BC
:103A4000FDF7EDF902214DF22420FDF7E8F9B72149
:103A50004DF22520FDF7E3F902214DF22620FDF776
:103A6000DEF9CF214DF22720FDF7D9F902214DF2E1
:103A70002820FDF7D4F9DE214DF22920FDF7CFF9FA
:103A800002214DF22A20FDF7CAF9F2214DF22B2036
:103A9000FDF7C5F902214DF22C20FDF7C0F9FE21FA
:103AA0004DF22D20FDF7BBF903214DF22E20FDF73D
:103AB000B6F910214DF22F20FDF7B1F903214DF297
:103AC0003020FDF7ACF933214DF23120FDF7A7F995
:103AD00003214DF23220FDF7A2F96D214DF2332082
:103AE000FDF79DF900214FF45340FDF798F933217C
:103AF0004DF20130FDF793F900214DF20230FDF750
:103B00008EF934214DF20330FDF789F900214DF291
:103B10000430FDF784F93A214DF20530FDF77FF9C5
:103B200000214DF20630FDF77AF94A214DF20730B7
:103B3000FDF775F900214DF20830FDF770F95C21B1
:103B40004DF20930FDF76BF900214DF20A30FDF717
:103B500066F981214DF20B30FDF761F900214DF23C
:103B60000C30FDF75CF9A6214DF20D30FDF757F949
:103B700000214DF20E30FDF752F9E5214DF20F30E4
:103B8000FDF74DF901214DF21030FDF748F91321F1
:103B90004DF21130FDF743F901214DF21230FDF7DE
:103BA0003EF954214DF21330FDF739F901214DF260
:103BB0001430FDF734F982214DF21530FDF72FF95D
:103BC00001214DF21630FDF72AF9CA214DF21730C6
:103BD000FDF725F902214DF21830FDF720F90021FB
:103BE0004DF21930FDF71BF902214DF21A30FDF7A5
:103BF00016F901214DF21B30FDF711F902214DF2AA
:103C00001C30FDF70CF934214DF21D30FDF707F99A
:103C100002214DF21E30FDF702F967214DF21F30EF
:103C2000FDF7FDF802214DF22030FDF7F8F8842170
:103C30004DF22130FDF7F3F802214DF22230FDF76D
:103C4000EEF8A4214DF22330FDF7E9F802214DF200
:103C50002430FDF7E4F8B7214DF22530FDF7DFF809
:103C600002214DF22630FDF7DAF8CF214DF2273050
:103C7000FDF7D5F802214DF22830FDF7D0F8DE210E
:103C80004DF22930FDF7CBF802214DF22A30FDF735
:103C9000C6F8F2214DF22B30FDF7C1F802214DF2AA
:103CA0002C30FDF7BCF8FE214DF22D30FDF7B7F8B2
:103CB00003214DF22E30FDF7B2F810214DF22F30D6
:103CC000FDF7ADF803214DF23030FDF7A8F83321B0
:103CD0004DF23130FDF7A3F803214DF23230FDF7FC
:103CE0009EF86D214DF23330FDF799F800214FF425
:103CF0005440FDF794F833214DF20140FDF78FF861
:103D000000214DF20240FDF78AF834214DF20340C4
:103D1000FDF785F800214DF20440FDF780F83A21C7
:103D20004DF20540FDF77BF800214DF20640FDF70E
:103D300076F84A214DF20740FDF771F800214DF267
:103D40000840FDF76CF85C214DF20940FDF767F87B
:103D500000214DF20A40FDF762F881214DF20B403F
:103D6000FDF75DF800214DF20C40FDF758F8A62153
:103D70004DF20D40FDF753F800214DF20E40FDF7D6
:103D80004EF8E5214DF20F40FDF749F801214DF2C3
:103D90001040FDF744F813214DF21140FDF73FF8B4
:103DA00001214DF21240FDF73AF854214DF2134033
:103DB000FDF735F801214DF21440FDF730F882216E
:103DC0004DF21540FDF72BF801214DF21640FDF79D
:103DD00026F8CA214DF21740FDF721F802214DF2D5
:103DE0001840FDF71CF800214DF21940FDF717F8B7
:103DF00002214DF21A40FDF712F801214DF21B404D
:103E000000E006E3FDF70BF802214DF21C40FDF740
:103E100006F834214DF21D40FDF701F802214DF264
:103E20001E40FCF7FCFF67214DF21F40FCF7F7FF37
:103E300002214DF22040FCF7F2FF84214DF2214097
:103E4000FCF7EDFF02214DF22240FCF7E8FFA42130
:103E50004DF22340FCF7E3FF02214DF22440FCF732
:103E6000DEFFB7214DF22540FCF7D9FF02214DF2CC
:103E70002640FCF7D4FFCF214DF22740FCF7CFFFBF
:103E800002214DF22840FCF7CAFFDE214DF2294005
:103E9000FCF7C5FF02214DF22A40FCF7C0FFF221DA
:103EA0004DF22B40FCF7BBFF02214DF22C40FCF7FA
:103EB000B6FFFE214DF22D40FCF7B1FF03214DF27C
:103EC0002E40FCF7ACFF10214DF22F40FCF7A7FF6E
:103ED00003214DF23040FCF7A2FF33214DF2314077
:103EE000FCF79DFF03214DF23240FCF798FF6D2156
:103EF0004DF23340FCF793FF00214FF45540FCF79F
:103F00008EFF33214DF20150FCF789FF00214DF265
:103F10000250FCF784FF34214DF20350FCF77FFF81
:103F200000214DF20450FCF77AFF3A214DF2055082
:103F3000FCF775FF00214DF20650FCF770FF4A2197
:103F40004DF20750FCF76BFF00214DF20850FCF7D3
:103F500066FF5C214DF20950FCF761FF00214DF234
:103F60000A50FCF75CFF81214DF20B50FCF757FF24
:103F700000214DF20C50FCF752FFA6214DF20D50DE
:103F8000FCF74DFF00214DF20E50FCF748FFE521F4
:103F90004DF20F50FCF743FF01214DF21050FCF79A
:103FA0003EFF13214DF21150FCF739FF01214DF274
:103FB0001250FCF734FF54214DF21350FCF72FFF41
:103FC00001214DF21450FCF72AFF82214DF21550C9
:103FD000FCF725FF01214DF21650FCF720FFCA2106
:103FE0004DF21750FCF71BFF02214DF21850FCF761
:103FF00016FF00214DF21950FCF711FF02214DF27E
:104000001A50FCF70CFF01214DF21B50FCF707FF83
:1040100002214DF21C50FCF702FF34214DF21D50DD
:10402000FCF7FDFE02214DF21E50FCF7F8FE672161
:104030004DF21F50FCF7F3FE02214DF22050FCF729
:10404000EEFE84214DF22150FCF7E9FE02214DF2F3
:104050002250FCF7E4FEA4214DF22350FCF7DFFED2
:1040600002214DF22450FCF7DAFEB7214DF2255023
:10407000FCF7D5FE02214DF22650FCF7D0FECF21F1
:104080004DF22750FCF7CBFE02214DF22850FCF7F1
:10409000C6FEDE214DF22950FCF7C1FE02214DF291
:1040A0002A50FCF7BCFEF2214DF22B50FCF7B7FE74
:1040B00002214DF22C50FCF7B2FEFE214DF22D50A4
:1040C000FCF7ADFE03214DF22E50FCF7A8FE1021A7
:1040D0004DF22F50FCF7A3FE03214DF23050FCF7B8
:1040E0009EFE33214DF23150FCF799FE03214DF233
:1040F0003250FCF794FE6D214DF23350FCF78FFEE9
:1041000000214FF45640FCF78AFE33214DF2016046
:10411000FCF785FE00214DF20260FCF780FE3421A1
:104120004DF20360FCF77BFE00214DF20460FCF7CA
:1041300076FE3A214DF20560FCF771FE00214DF24A
:104140000660FCF76CFE4A214DF20760FCF767FE43
:1041500000214DF20860FCF762FE5C214DF209601F
:10416000FCF75DFE00214DF20A60FCF758FE81214C
:104170004DF20B60FCF753FE00214DF20C60FCF792
:104180004EFEA6214DF20D60FCF749FE00214DF2D6
:104190000E60FCF744FEE5214DF20F60FCF73FFE98
:1041A00001214DF21060FCF73AFE13214DF211602F
:1041B000FCF735FE01214DF21260FCF730FE542170
:1041C0004DF21360FCF72BFE01214DF21460FCF759
:1041D00026FE82214DF21560FCF721FE01214DF2F1
:1041E0001660FCF71CFECA214DF21760FCF717FEA3
:1041F00002214DF21860FCF712FE00214DF2196009
:10420000FCF70DFE02214DF21A60FCF708FE0121B9
:104210004DF21B60FCF703FE02214DF21C60FCF71F
:10422000FEFD34214DF21D60FCF7F9FD02214DF237
:104230001E60FCF7F4FD67214DF21F60FCF7EFFDF7
:1042400002214DF22060FCF7EAFD84214DF221604D
:10425000FCF7E5FD02214DF22260FCF7E0FDA42110
:104260004DF22360FCF7DBFD02214DF22460FCF7E8
:10427000D6FDB7214DF22560FCF7D1FD02214DF2AC
:104280002660FCF7CCFDCF214DF22760FCF7C7FD7F
:1042900002214DF22860FCF7C2FDDE214DF22960BB
:1042A000FCF7BDFD02214DF22A60FCF7B8FDF221BA
:1042B0004DF22B60FCF7B3FD02214DF22C60FCF7B0
:1042C000AEFDFE214DF22D60FCF7A9FD03214DF25C
:1042D0002E60FCF7A4FD10214DF22F60FCF79FFD2E
:1042E00003214DF23060FCF79AFD33214DF231602D
:1042F000FCF795FD03214DF23260FCF790FD6D2136
:104300004DF23360FCF78BFD55214FF47040FCF704
:1043100086FDAA214FF20100FCF781FD52214FF2E8
:104320000200FCF77CFD08214FF20300FCF777FD4B
:1043300000214FF20400FCF772FDCC214FF4314014
:10434000FCF76DFD00214BF20110FCF768FD052123
:104350004FF43640FCF763FD70214FF43740FCF713
:104360005EFD70214BF20170FCF759FD01214FF405
:104370003840FCF754FD03214BF60100FCF74FFDDC
:1043800003214BF60200FCF74AFD03214BF6030024
:10439000FCF745FD02214FF43C40FCF740FD0021B5
:1043A0004BF60140FCF73BFD00214BF60240FCF7C9
:1043B00036FDD0214FF44940FCF731FD02214CF687
:1043C0000110FCF72CFD50214CF60210FCF727FDE4
:1043D00050214CF60310FCF722FD50214CF604103E
:1043E000FCF71DFD00214FF45450FCF718FD55213A
:1043F0004FF46850FCF713FD4FF48850FCF7F4FCC1
:10440000782003F0D5FE4FF42450FCF7EDFC01F0CA
:1044100064B9FE48808849F2253188427ED147F64A
:10442000F001E520FCF7FBFC4FF480710120FCF764
:10443000F6FC4FF4E0610220FCF7F1FC41F23001A0
:104440000320FCF7ECFC00210420FCF7E8FC40F220
:1044500002210820FCF7E3FC00210920FCF7DFFC27
:1044600000210A20FCF7DBFC00210C20FCF7D7FC24
:1044700000210D20FCF7D3FC00210F20FCF7CFFC1E
:1044800000211020FCF7CBFC07211120FCF7C7FC12
:1044900000211220FCF7C3FC00211320FCF7BFFC15
:1044A00000210720FCF7BBFC41F290611020FCF7D3
:1044B000B6FC40F227211120FCF7B1FC9D2112200F
:1044C000FCF7ADFC4FF4C8511320FCF7A8FC2521E4
:1044D0002920FCF7A4FC0D212B20FCF7A0FC0721D0
:1044E0003020FCF79CFC40F203313120FCF797FCB4
:1044F00003213220FCF793FC40F206213520FCF723
:104500008EFC08213620FCF78AFC40F20641372059
:10451000FCF785FC4FF44171382000E057E0FCF7D0
:104520007EFC07213920FCF77AFC40F202613C2036
:10453000FCF775FC08213D20FCF771FC00215020A0
:10454000FCF76DFCEF215120FCF769FC00215220A3
:10455000FCF765FC40F23F115320FCF760FC4FF480
:1045600027416020FCF75BFC01216120FCF757FC30
:1045700000216A20FCF753FC00218020FCF74FFC4F
:1045800000218120FCF74BFC00218220FCF747FC36
:1045900000218320FCF743FC00218420FCF73FFC32
:1045A00000218520FCF73BFC10219020FCF737FC14
:1045B0004FF4C0619220FCF732FC40F23311072027
:1045C000FCF72DFC22210020FCF729FC1FE78F4877
:1045D000808849F2283188427ED141F28F01EC2057
:1045E000FCF71DFC41F23421EF20FCF718FC4FF4DE
:1045F00080710120FCF713FC4FF4E0610220FCF70E
:104600000EFC41F230010320FCF709FC00210420DC
:10461000FCF705FC40F202210820FCF700FC002119
:104620000920FCF7FCFB00210A20FCF7F8FB012124
:104630000C20FCF7F4FB00210D20FCF7F0FB00211F
:104640000F20FCF7ECFB00211020FCF7E8FB072112
:104650001120FCF7E4FB00211220FCF7E0FB002115
:104660001320FCF7DCFB01210720FCF7D8FB3220EC
:1046700003F0E6FD41F290411020FCF7D0FB40F240
:1046800027211120FCF7CBFB322003F0D9FD8A2132
:104690001220FCF7C4FB322003F0D2FD4FF4D051BE
:1046A0001320FCF7BCFB06212920FCF7B8FB0D21E9
:1046B0002B20FCF7B4FB322003F0C2FD00212020A8
:1046C000FCF7ADFB00212120FCF7A9FB322003F011
:1046D000B7FD0021302000E074E0FCF7A0FB40F2C1
:1046E00004613120FCF79BFB40F205313220FCF7DE
:1046F00096FB00213520FCF792FB40F6094136205D
:10470000FCF78DFB4FF401713720FCF788FB40F27A
:1047100001313820FCF783FB40F207713920FCF7A8
:104720007EFB00213C20FCF77AFB40F60A213D206D
:10473000FCF775FB322003F083FD00215020FCF7CD
:104740006EFBEF215120FCF76AFB00215220FCF7A1
:1047500066FB40F23F115320FCF761FB4FF4274109
:104760006020FCF75CFB01216120FCF758FB002175
:104770006A20FCF754FB00218020FCF750FB00214D
:104780008120FCF74CFB00218220FCF748FB002134
:104790008320FCF744FB00218420FCF740FB002130
:1047A0008520FCF73CFB10219020FCF738FB4FF4F0
:1047B000C0619220FCF733FB40F233110720FCF775
:1047C0002EFB24E61148808849F2203188427DD1B1
:1047D00000210846FCF723FB4FF480710120FCF711
:1047E0001EFB4FF4E0610220FCF719FB41F230019F
:1047F0000320FCF714FB00210420FCF710FB40F21F
:1048000002210820FCF70BFB002101E0DC00002066
:104810000920FCF704FB00210A20FCF700FB012122
:104820000C20FCF7FCFA00210D20FCF7F8FA00211F
:104830000F20FCF7F4FA322003F002FD40F20111E0
:104840000720FCF7ECFA322003F0FAFC4FF4865113
:104850001020FCF7E4FA07211120FCF7E0FA4FF4EE
:1048600088711220FCF7DBFA4FF430611320FCF75B
:10487000D6FA00212920FCF7D2FA44F210012B20AD
:10488000FCF7CDFA00215020FCF7C9FAEF215120A6
:10489000FCF7C5FA00215220FCF7C1FA40F23F11A3
:1048A0005320FCF7BCFA4FF41C516020FCF7B7FA18
:1048B00001216120FCF7B3FA00216A20FCF7AFFA6E
:1048C00000218020FCF7ABFA002100E031E08120DC
:1048D000FCF7A5FA00218220FCF7A1FA0021832031
:1048E000FCF79DFA00218420FCF799FA002185202D
:1048F000FCF795FA10219020FCF791FA0021922004
:10490000FCF78DFA01219320FCF789FA4FF48871A6
:104910009520FCF784FA00219720FCF780FA00210B
:104920009820FCF77CFA40F273110720FCF777FA25
:104930006DE5FE48808849F2313188427DD141F2EF
:104940001401E720FCF76BFA4FF480710120FCF7AB
:1049500066FA4FF400710220FCF761FA41F2380167
:104960000320FCF75CFA40F202210820FCF757FA1A
:1049700000210920FCF753FA00210A20FCF74FFA26
:1049800000210C20FCF74BFA00210D20FCF747FA20
:1049900000210F20FCF743FA00211020FCF73FFA1A
:1049A00007211120FCF73BFA00211220FCF737FA0F
:1049B00000211320FCF733FAC82003F041FC41F238
:1049C00090611020FCF72BFA40F227211120FCF710
:1049D00026FA322003F034FC0C211220FCF71FFAD7
:1049E000322003F02DFC4FF400611320FCF717FA7E
:1049F00011212920FCF713FA0B212B20FCF70FFAC9
:104A0000322003F01DFC00212020FCF708FA40F2C0
:104A10003F112120FCF703FA00213020FCF7FFF9B9
:104A20004FF483713120FCF7FAF900213220FCF7B2
:104A3000F6F94FF40171352000E064E0FCF7EFF97E
:104A400041F20A613620FCF7EAF940F2077137209B
:104A5000FCF7E5F94FF483713820FCF7E0F940F2F8
:104A600007713920FCF7DBF940F202413C20FCF7EA
:104A7000D6F940F60F413D20FCF7D1F90021502036
:104A8000FCF7CDF9EF215120FCF7C9F900215220A4
:104A9000FCF7C5F940F23F115320FCF7C0F94FF481
:104AA0001C516020FCF7BBF901216120FCF7B7F92C
:104AB00000216A20FCF7B3F900218020FCF7AFF950
:104AC00000218120FCF7ABF900218220FCF7A7F937
:104AD00000218320FCF7A3F900218420FCF79FF933
:104AE00000218520FCF79BF910219020FCF797F915
:104AF0004FF4C0619220FCF792F940F23311072085
:104B0000FCF78DF983E48948808845F208418842A2
:104B10007ED14FF480710120FCF781F94FF4E06100
:104B20000220FCF77CF941F230010320FCF777F911
:104B300000210420FCF773F940F207210820FCF75C
:104B40006EF900210920FCF76AF900210A20FCF720
:104B500066F900210C20FCF762F900210D20FCF71A
:104B60005EF900210F20FCF75AF9142003F068FBCE
:104B700041F2B0611020FCF752F901211120FCF73D
:104B80004EF901211720FCF74AF94FF49C711220CD
:104B9000FCF745F94FF400611320FCF740F90921B7
:104BA0002920FCF73CF909212A20FCF738F90021DB
:104BB000A420FCF734F900215020FCF730F9EF2154
:104BC0005120FCF72CF900215220FCF728F940F283
:104BD0003F115320FCF723F94FF41C516020FCF7E0
:104BE0001EF901216120FCF71AF900216A20FCF767
:104BF00016F900218020FCF712F900218120FCF732
:104C00000EF900218220FCF70AF90021832000E040
:104C100023E0FCF704F900218420FCF700F90021CF
:104C20008520FCF7FCF813219020FCF7F8F8002110
:104C30009220FCF7F4F803219320FCF7F0F84FF4EE
:104C400088719520FCF7EBF840F273110720FCF710
:104C5000E6F8322003F0F4FAB8E43448808841F2F0
:104C6000055188427ED100210720FCF7D8F8322078
:104C700003F0E6FA4FF48E711220FCF7D0F8012110
:104C8000A420FCF7CCF80F210820FCF7C8F8082175
:104C90000A20FCF7C4F808210D20FCF7C0F840F208
:104CA00007713020FCF7BBF807213120FCF7B7F87B
:104CB00040F203613220FCF7B2F84FF4E061332098
:104CC000FCF7ADF840F202213420FCF7A8F80221ED
:104CD0003520FCF7A4F841F60F713620FCF79FF859
:104CE00040F207713720FCF79AF800213820FCF7D2
:104CF00096F800213920FCF792F840F207713A202B
:104D0000FCF78DF800213B20FCF789F807213C20B7
:104D1000FCF785F800213D20FCF781F8322003F0F4
:104D20008FFA01210720FCF77AF801E0DC0000206F
:104D300001211720FCF773F8322003F081FA4FF4B9
:104D4000BD511020FCF76BF840F217211120FCF741
:104D500066F84FF48F711220FCF761F84FF4706120
:104D6000132000E097E0FCF75AF800212A20FCF716
:104D700056F80A212920FCF752F84FF49F711220AF
:104D8000FCF74DF800215020FCF749F8EF215120A5
:104D9000FCF745F800215220FCF741F840F23F11A2
:104DA0005320FCF73CF84FF41C516020FCF737F817
:104DB00001216120FCF733F800216A20FCF72FF86D
:104DC00000218020FCF72BF800218120FCF727F838
:104DD00000218220FCF723F800218320FCF71FF834
:104DE00000218420FCF71BF800218520FCF717F830
:104DF00013219020FCF713F84FF440719220FCF738
:104E00000EF805219320FCF70AF800219520FCF705
:104E100006F800219720FCF702F800219820FBF704
:104E2000FEFF4FF480710120FBF7F9FF4FF4E061C2
:104E30000220FBF7F4FF41F238010320FBF7EFFFFC
:104E400000210420FBF7EBFF00210C20FBF7E7FF1C
:104E500000210F20FBF7E3FF00212020FBF7DFFFFD
:104E600000212120FBF7DBFF21210720FBF7D7FFE3
:104E7000142003F0E5F961210720FBF7D0FF14208F
:104E800003F0DEF940F273110720FBF7C8FF14208E
:104E900003F0D6F995E4FE4880884BF2055188422C
:104EA0007ED100210846FBF7BAFF00210846FBF738
:104EB000B6FF00210846FBF7B2FF00210846FBF7CA
:104EC000AEFF0121A420FBF7AAFF142003F0B8F9DC
:104ED0004FF41C516020FBF7A2FF40F20221082092
:104EE000FBF79DFF4FF405713020FBF798FF43F26D
:104EF00015713120FBF793FF40F204613220FBF77C
:104F00008EFF40F616613320FBF789FF42F2112134
:104F10003420FBF784FF4FF4A8513520FBF77FFFC7
:104F200048F207513620FBF77AFF41F2074137205C
:104F3000FBF775FF41F203413820FBF770FF20219A
:104F40003920FBF76CFF1A219020FBF768FF002146
:104F50001020FBF764FF07211120FBF760FF002101
:104F60001220FBF75CFF00211320FBF758FF1420F1
:104F700003F066F94FF4E6611020FBF750FF40F2B2
:104F800037111120FBF74BFF142003F059F94FF4B0
:104F9000DC711220FBF743FF142003F051F900E00D
:104FA00083E04FF470611320FBF739FF80212A2042
:104FB000FBF735FF48212920FBF731FF142003F0D0
:104FC0003FF94FF480710120FBF729FF4FF4E061B6
:104FD0000220FBF724FF41F238010320FBF71FFFFB
:104FE00040F202210820FBF71AFF00210A20FBF7FC
:104FF00016FF00210C20FBF712FF00210D20FBF70C
:105000000EFF30210E20FBF70AFF00215020FBF796
:1050100006FFEF215120FBF702FF00215220FBF792
:10502000FEFE40F23F115320FBF7F9FE4FF41C51F6
:105030006020FBF7F4FE01216120FBF7F0FE002168
:105040006A20FBF7ECFE11219020FBF7E8FE4FF4FD
:10505000C0619220FBF7E3FE40F202419320FBF790
:10506000DEFE02219420FBF7DAFE142003F0E8F8BC
:1050700001210720FBF7D3FE142003F0E1F86121A2
:105080000720FBF7CCFE40F273110720FBF7C7FEA9
:1050900000212020FBF7C3FE00212120FBF7BFFEEB
:1050A00022210020FBF7BBFE17E3794880884CF2F1
:1050B000055188427ED100210846FBF7B0FE002151
:1050C0000846FBF7ACFE142003F0BAF800210846AE
:1050D000FBF7A5FE00210846FBF7A1FE00210846CC
:1050E000FBF79DFE00210846FBF799FE0121A42055
:1050F000FBF795FE142003F0A3F84FF41C51602039
:10510000FBF78DFE40F606010820FBF788FE40F213
:1051100003713020FBF783FE01213120FBF77FFE76
:1051200004213220FBF77BFE4FF481713320FBF723
:1051300076FE4FF440713420FBF771FE40F203110C
:105140003520FBF76CFE1F213620FBF768FE40F28E
:1051500003713720FBF763FE01213820FBF75FFE68
:1051600004213920FBF75BFE15219020FBF757FE49
:105170004FF482611020FBF752FE40F247211120CC
:10518000FBF74DFE4FF4DE711220FBF748FE4FF4A3
:1051900060611320FBF743FE782003F051F84FF4D1
:1051A00080710120FBF73BFE4FF400710220FBF7FA
:1051B00036FE00E050E041F230010320FBF72FFE05
:1051C00008210A20FBF72BFE00210C20FBF727FE0D
:1051D00020210E20FBF723FE00210F20FBF71FFEEE
:1051E00000212020FBF71BFE00212120FBF717FEEA
:1051F0003D212A20FBF713FE142003F021F82D2176
:105200002920FBF70CFE00215020FBF708FE4DF291
:10521000EF015120FBF703FE00215220FBF7FFFDB9
:1052200040F23F115320FBF7FAFD00216120FBF70C
:10523000F6FD00216A20FBF7F2FD4FF44071922049
:10524000FBF7EDFD05219320FBF7E9FD4FF480719D
:105250000720FBF7E4FD40E20D48808844F231511D
:1052600088427CD101210020FBF7D9FD0A2002F001
:10527000E7FF41F228611020FBF7D1FD0E2112203B
:10528000FBF7CDFD40F639211320FBF7C8FD01E007
:10529000DC0000200A2002F0D3FF40211120FBF7A0
:1052A000BEFD50211520FBF7BAFD0A2002F0C8FF11
:1052B0001E211220FBF7B3FD0A2002F0C1FF4FF4BC
:1052C000B1511020FBF7ABFD42F639211320FBF75B
:1052D000A6FD0A2002F0B4FF4FF480710120FBF715
:1052E0009EFD4FF440710220FBF799FD41F2380119
:1052F0000320FBF794FD40F202210820FBF78FFD0D
:1053000008210A20FBF78BFD00213020FBF787FDE9
:1053100040F202413120FBF782FD4FF483713220CD
:10532000FBF77DFD40F203513320FBF778FD4FF48E
:1053300082713420FBF773FD40F201313520FBF719
:105340006EFD40F207713620FBF769FD40F2053132
:105350003720FBF764FD4FF40271382000E040E095
:10536000FBF75DFD40F60B713920FBF758FD02217C
:105370004120FBF754FD4FF41C516020FBF74FFD1B
:1053800001216120FBF74BFD4FF404719020FBF7E6
:1053900046FD4FF485719220FBF741FD04219320D7
:1053A000FBF73DFD4FF48071A020FBF738FD012194
:1053B0000720FBF734FD21210720FBF730FD2321D7
:1053C0000720FBF72CFD33210720FBF728FD40F2D7
:1053D00033110720FBF723FD0021A020FBF71FFD61
:1053E0007BE1FE48808844F2355188427ED13021ED
:1053F0001520FBF714FD10219A20FBF710FD20214A
:105400001120FBF70CFD43F228411020FBF707FDAC
:1054100002211220FBF703FD41F238011320FBF7B4
:10542000FEFC282002F00CFF12210846FBF7F7FCD7
:10543000282002F005FF43F220411020FBF7EFFC8B
:1054400043F238011320FBF7EAFC462002F0F8FE95
:1054500000213020FBF7E3FC40F202413120FBF752
:10546000DEFC40F207313220FBF7D9FC4FF44171EA
:105470003320FBF7D4FC04213420FBF7D0FC40F2AE
:1054800001413520FBF7CBFC40F207713620FBF7DA
:10549000C6FC40F205313720FBF7C1FC4FF4C26176
:1054A0003820FBF7BCFC4FF4C2613920FBF7B7FC96
:1054B0004FF480710120FBF7B2FC4FF440710220E1
:1054C000FBF7ADFC41F230010320FBF7A8FC40F6EE
:1054D00008010820FBF7A3FC08210A20FBF79FFC2A
:1054E0004FF41C516020FBF79AFC00E031E00121F1
:1054F0006120FBF794FC4FF49F719020FBF78FFC29
:105500004FF480719220FBF78AFC4FF48071932056
:10551000FBF785FC4FF44051A020FBF780FC1021E5
:10552000A320FBF77CFC01210720FBF778FC21215D
:105530000720FBF774FC23210720FBF770FC3321C5
:105540000720FBF76CFC40F233110720FBF767FCE8
:10555000C3E0A248808841F6631188427DD1E220F1
:10556000FBF742FC1D20FBF748FC0220FBF745FC43
:105570000420FBF742FC642002F01AFEE020FBF757
:1055800033FC0120FBF739FC0A2002F059FEE02031
:10559000FBF72AFC0320FBF730FC0C2002F050FE46
:1055A0000120FBF721FC0A2002F04AFEE620FBF76F
:1055B0001BFC2F20FBF721FCFF20FBF71EFCFF202C
:1055C000FBF71BFCB020FBF70FFC2020FBF715FCC2
:1055D0000020FBF712FC0320FBF70FFC40F21F300A
:1055E000FBF70BFC0120FBF708FC40F2DF10FBF798
:1055F00004FC0020FBF701FCB420FBF7F5FB0420C2
:10560000FBF7FBFB40F21F40FBF7F7FB0020FBF72B
:10561000F4FB2E20FBF7F1FB0020FBF7EEFB002054
:10562000FBF7EBFB0020FBF7E8FB0020FBF7E5FBBB
:10563000B620FBF7D9FB0220FBF7DFFB4FF403702A
:10564000FBF7DBFB0020FBF7D8FB1720FBF7D5FBB4
:105650001520FBF7D2FB002000E03BE0FBF7CDFB81
:105660000020FBF7CAFBF020FBF7BEFB0320FBF793
:10567000C4FB2920FBF7B8FBD020FBF7B5FB0020CB
:10568000FBF7BBFBBE20FBF7AFFB0520FBF7B5FB31
:10569000FE20FBF7B2FB0120FBF7AFFB0020FBF77E
:1056A000ACFB0020FBF7A9FB0020FBF7A6FBB82012
:1056B000FBF79AFB0320FBF7A0FB0120FBF79DFB08
:1056C000BA20FBF791FB0120FBF797FB6420FCF766
:1056D0003DF802E00020414988800020FCF762F894
:1056E00001203F4908604FF6FF70FCF769FA21B0CE
:1056F00000BD2DE9FC4F05460E4617469846DDF8DD
:105700002C90002001903548808846F6040188429C
:1057100005D03248808849F28141884229D12F48FA
:105720008079012825D1AB4635462C480088C01B1E
:10573000401E86B2474629480088A0EB0B00401E59
:105740001FFA80F80020254988712A2048812B20E3
:10575000888143463A4631462846CDF80090FFF707
:10576000C8FF01201D4988712B2048812A2088818B
:105770001DE0781B401C80B20190344615E02146A4
:105780002846FBF77BFBFBF75CFB4FF0000A07E0CA
:105790004FF0D840A0F880900AF101001FFA80FA7B
:1057A00001988245F4DB601C84B24445E7DDBDE826
:1057B000FC8F2DE9F84F07460D4690469946DDF8D7
:1057C00028B0A8EB0700401C1FFA80FAA9EB0500DF
:1057D000401C80B20090002419E00000DC00002092
:1057E000BC824042281981B23846FBF747FBFBF7E1
:1057F00028FB002607E004FB0A603BF81000F8498C
:105800000880701C86B25645F5DB601C84B2009897
:105810008442E7DBBDE8F88F2DE9FF4F84B0814675
:105820008A460020039002900698A0EB090507988D
:10583000A0EB0A06CDF80490CDF800A0002D01DD04
:10584000012705E00DB9002702E04FF0FF376D4258
:10585000002E02DD4FF0010806E016B94FF00008F7
:1058600002E04FF0FF387642B54201DD2C4600E001
:1058700034464FF0000B21E0009A91B2019A90B2A9
:10588000FBF78EFE03982844039002983044029060
:105890000398A04205DD0398001B0390019838444B
:1058A00001900298A04205DD0298001B029000982A
:1058B000404400900BF101001FFA80FB601C8345FF
:1058C000DADD08B0BDE8F08FF0B504460D461646A7
:1058D0001F462B46324629462046FFF79DFF3B4692
:1058E000224629462046FFF797FF3B463246394677
:1058F0002046FFF791FF3B46324629463046FFF7E8
:105900008BFFF0BD2DE9F04306460F46904600247C
:1059100045460320A0EB48093CE07A1B91B23219BE
:1059200090B2FBF73DFE3A1B91B2721990B2FBF7B1
:1059300037FE3A1991B2721990B2FBF731FE7A191B
:1059400091B2321990B2FBF72BFE7A1991B2321B49
:1059500090B2FBF725FE3A1991B2721B90B2FBF799
:105960001FFE7A1B91B2321B90B2FBF719FE3A1B55
:1059700091B2721B90B2FBF713FE641CB9F1000FD9
:1059800003DAA000801D814404E0601B80000A301F
:1059900081446D1EAC42C0DDBDE8F0832DE9F84FB7
:1059A00080460E4617461C46B3462046E31704EBD6
:1059B0005373DB1021464FEAE47C04EB5C7C4FEA36
:1059C000EC0CA4EBCC0CBCF1000F02D04FF0010C9E
:1059D00001E04FF0000C6344224604EBD27C4FEA16
:1059E0006C0C03FB0CF3DBB20093A7F12000C7B2F1
:1059F000002556E00C2C07D107EB4700794901EB55
:105A0000800010F8059013E0102C05D1764800EBCB
:105A1000071010F805900BE0182C07D107EBC70012
:105A2000724901EB800010F8059001E0BDE8F88FA5
:105A30004FF0000A2FE009F0800030B16C48028876
:105A400031464046FBF7BAFD07E00A9828B9694895
:105A5000028831464046FBF7B1FD4FEA49604FEA04
:105A60001069701C86B264484088B04200DCDDE7F3
:105A7000A6EB0B00A0420AD15E4608F101001FFA16
:105A800080F85D480088404500DCCFE706E00AF179
:105A9000010000F0FF0ABAF1080FCCDB00BF681C60
:105AA000C5B200988542A5DB00BFBFE710B502462E
:105AB000012000E050430B1EA1F10104E1B2F9D135
:105AC00010BD2DE9FF4F81B0074691461E460E9D41
:105AD0004FF0000A002439E0301B401EC1B20A20FA
